{
  "contractName": "BankAccount",
  "abi": [
    {
      "constant": true,
      "inputs": [
        {
          "internalType": "address",
          "name": "",
          "type": "address"
        }
      ],
      "name": "userAccount",
      "outputs": [
        {
          "internalType": "uint256",
          "name": "",
          "type": "uint256"
        }
      ],
      "payable": false,
      "stateMutability": "view",
      "type": "function"
    },
    {
      "constant": true,
      "inputs": [
        {
          "internalType": "address",
          "name": "",
          "type": "address"
        }
      ],
      "name": "userExists",
      "outputs": [
        {
          "internalType": "bool",
          "name": "",
          "type": "bool"
        }
      ],
      "payable": false,
      "stateMutability": "view",
      "type": "function"
    },
    {
      "constant": false,
      "inputs": [],
      "name": "createAcc",
      "outputs": [
        {
          "internalType": "string",
          "name": "",
          "type": "string"
        }
      ],
      "payable": true,
      "stateMutability": "payable",
      "type": "function"
    },
    {
      "constant": false,
      "inputs": [],
      "name": "deposit",
      "outputs": [
        {
          "internalType": "string",
          "name": "",
          "type": "string"
        }
      ],
      "payable": true,
      "stateMutability": "payable",
      "type": "function"
    },
    {
      "constant": false,
      "inputs": [
        {
          "internalType": "uint256",
          "name": "amount",
          "type": "uint256"
        }
      ],
      "name": "withdraw",
      "outputs": [
        {
          "internalType": "string",
          "name": "",
          "type": "string"
        }
      ],
      "payable": true,
      "stateMutability": "payable",
      "type": "function"
    },
    {
      "constant": false,
      "inputs": [
        {
          "internalType": "address payable",
          "name": "userAddress",
          "type": "address"
        },
        {
          "internalType": "uint256",
          "name": "amount",
          "type": "uint256"
        }
      ],
      "name": "TransferAmount",
      "outputs": [
        {
          "internalType": "string",
          "name": "",
          "type": "string"
        }
      ],
      "payable": false,
      "stateMutability": "nonpayable",
      "type": "function"
    },
    {
      "constant": false,
      "inputs": [
        {
          "internalType": "address payable",
          "name": "toAddress",
          "type": "address"
        },
        {
          "internalType": "uint256",
          "name": "amount",
          "type": "uint256"
        }
      ],
      "name": "sendAmount",
      "outputs": [
        {
          "internalType": "string",
          "name": "",
          "type": "string"
        }
      ],
      "payable": true,
      "stateMutability": "payable",
      "type": "function"
    },
    {
      "constant": true,
      "inputs": [],
      "name": "userAccountBalance",
      "outputs": [
        {
          "internalType": "uint256",
          "name": "",
          "type": "uint256"
        }
      ],
      "payable": false,
      "stateMutability": "view",
      "type": "function"
    },
    {
      "constant": true,
      "inputs": [],
      "name": "accountExist",
      "outputs": [
        {
          "internalType": "bool",
          "name": "",
          "type": "bool"
        }
      ],
      "payable": false,
      "stateMutability": "view",
      "type": "function"
    }
  ],
  "bytecode": "0x608060405234801561001057600080fd5b506114fd806100206000396000f3fe6080604052600436106100865760003560e01c8063d0e30db011610059578063d0e30db01461028d578063d33921da14610310578063de99e00414610393578063ea5eda3214610467578063ecc81af5146104cc57610086565b80630e666e491461008b5780632e1a7d4d146100f45780635d461de51461019b578063c137a77414610262575b600080fd5b34801561009757600080fd5b506100da600480360360208110156100ae57600080fd5b81019080803573ffffffffffffffffffffffffffffffffffffffff1690602001909291905050506104fb565b604051808215151515815260200191505060405180910390f35b6101206004803603602081101561010a57600080fd5b810190808035906020019092919050505061051b565b6040518080602001828103825283818151815260200191508051906020019080838360005b83811015610160578082015181840152602081019050610145565b50505050905090810190601f16801561018d5780820380516001836020036101000a031916815260200191505b509250505060405180910390f35b6101e7600480360360408110156101b157600080fd5b81019080803573ffffffffffffffffffffffffffffffffffffffff169060200190929190803590602001909291905050506107d9565b6040518080602001828103825283818151815260200191508051906020019080838360005b8381101561022757808201518184015260208101905061020c565b50505050905090810190601f1680156102545780820380516001836020036101000a031916815260200191505b509250505060405180910390f35b34801561026e57600080fd5b50610277610a98565b6040518082815260200191505060405180910390f35b610295610ade565b6040518080602001828103825283818151815260200191508051906020019080838360005b838110156102d55780820151818401526020810190506102ba565b50505050905090810190601f1680156103025780820380516001836020036101000a031916815260200191505b509250505060405180910390f35b610318610cda565b6040518080602001828103825283818151815260200191508051906020019080838360005b8381101561035857808201518184015260208101905061033d565b50505050905090810190601f1680156103855780820380516001836020036101000a031916815260200191505b509250505060405180910390f35b34801561039f57600080fd5b506103ec600480360360408110156103b657600080fd5b81019080803573ffffffffffffffffffffffffffffffffffffffff1690602001909291908035906020019092919050505061101f565b6040518080602001828103825283818151815260200191508051906020019080838360005b8381101561042c578082015181840152602081019050610411565b50505050905090810190601f1680156104595780820380516001836020036101000a031916815260200191505b509250505060405180910390f35b34801561047357600080fd5b506104b66004803603602081101561048a57600080fd5b81019080803573ffffffffffffffffffffffffffffffffffffffff1690602001909291905050506113e0565b6040518082815260200191505060405180910390f35b3480156104d857600080fd5b506104e16113f8565b604051808215151515815260200191505060405180910390f35b60016020528060005260406000206000915054906101000a900460ff1681565b6060816000803373ffffffffffffffffffffffffffffffffffffffff1673ffffffffffffffffffffffffffffffffffffffff16815260200190815260200160002054116105b3576040517f08c379a00000000000000000000000000000000000000000000000000000000081526004018080602001828103825260248152602001806114a56024913960400191505060405180910390fd5b60011515600160003373ffffffffffffffffffffffffffffffffffffffff1673ffffffffffffffffffffffffffffffffffffffff16815260200190815260200160002060009054906101000a900460ff16151514610679576040517f08c379a00000000000000000000000000000000000000000000000000000000081526004018080602001828103825260168152602001807f4163636f756e74206973206e6f7420637265617465640000000000000000000081525060200191505060405180910390fd5b600082116106d2576040517f08c379a000000000000000000000000000000000000000000000000000000000815260040180806020018281038252602381526020018061144d6023913960400191505060405180910390fd5b816000803373ffffffffffffffffffffffffffffffffffffffff1673ffffffffffffffffffffffffffffffffffffffff16815260200190815260200160002054036000803373ffffffffffffffffffffffffffffffffffffffff1673ffffffffffffffffffffffffffffffffffffffff168152602001908152602001600020819055503373ffffffffffffffffffffffffffffffffffffffff166108fc839081150290604051600060405180830381858888f1935050505015801561079b573d6000803e3d6000fd5b506040518060400160405280601481526020017f7769746864726177616c2053756363657366756c0000000000000000000000008152509050919050565b606060008211610834576040517f08c379a000000000000000000000000000000000000000000000000000000000815260040180806020018281038252602381526020018061144d6023913960400191505060405180910390fd5b60011515600160003373ffffffffffffffffffffffffffffffffffffffff1673ffffffffffffffffffffffffffffffffffffffff16815260200190815260200160002060009054906101000a900460ff161515146108fa576040517f08c379a00000000000000000000000000000000000000000000000000000000081526004018080602001828103825260168152602001807f4163636f756e74206973206e6f7420637265617465640000000000000000000081525060200191505060405180910390fd5b816000803373ffffffffffffffffffffffffffffffffffffffff1673ffffffffffffffffffffffffffffffffffffffff1681526020019081526020016000205411610990576040517f08c379a00000000000000000000000000000000000000000000000000000000081526004018080602001828103825260248152602001806114a56024913960400191505060405180910390fd5b816000803373ffffffffffffffffffffffffffffffffffffffff1673ffffffffffffffffffffffffffffffffffffffff16815260200190815260200160002054036000803373ffffffffffffffffffffffffffffffffffffffff1673ffffffffffffffffffffffffffffffffffffffff168152602001908152602001600020819055508273ffffffffffffffffffffffffffffffffffffffff166108fc839081150290604051600060405180830381858888f19350505050158015610a59573d6000803e3d6000fd5b506040518060400160405280601081526020017f7472616e73666572207375636365737300000000000000000000000000000000815250905092915050565b60008060003373ffffffffffffffffffffffffffffffffffffffff1673ffffffffffffffffffffffffffffffffffffffff16815260200190815260200160002054905090565b606060011515600160003373ffffffffffffffffffffffffffffffffffffffff1673ffffffffffffffffffffffffffffffffffffffff16815260200190815260200160002060009054906101000a900460ff16151514610ba6576040517f08c379a00000000000000000000000000000000000000000000000000000000081526004018080602001828103825260168152602001807f4163636f756e74206973206e6f7420637265617465640000000000000000000081525060200191505060405180910390fd5b60003411610c1c576040517f08c379a00000000000000000000000000000000000000000000000000000000081526004018080602001828103825260198152602001807f56616c756520666f72206465706f736974206973205a65726f0000000000000081525060200191505060405180910390fd5b346000803373ffffffffffffffffffffffffffffffffffffffff1673ffffffffffffffffffffffffffffffffffffffff16815260200190815260200160002054016000803373ffffffffffffffffffffffffffffffffffffffff1673ffffffffffffffffffffffffffffffffffffffff168152602001908152602001600020819055506040518060400160405280601581526020017f4465706f73697465642053756363657366756c6c790000000000000000000000815250905090565b606060001515600160003373ffffffffffffffffffffffffffffffffffffffff1673ffffffffffffffffffffffffffffffffffffffff16815260200190815260200160002060009054906101000a900460ff16151514610da2576040517f08c379a00000000000000000000000000000000000000000000000000000000081526004018080602001828103825260178152602001807f4163636f756e7420416c7265616479204372656174656400000000000000000081525060200191505060405180910390fd5b6000341415610e835760008060003373ffffffffffffffffffffffffffffffffffffffff1673ffffffffffffffffffffffffffffffffffffffff1681526020019081526020016000208190555060018060003373ffffffffffffffffffffffffffffffffffffffff1673ffffffffffffffffffffffffffffffffffffffff16815260200190815260200160002060006101000a81548160ff0219169083151502179055506040518060400160405280600f81526020017f6163636f756e7420637265617465640000000000000000000000000000000000815250905061101c565b60001515600160003373ffffffffffffffffffffffffffffffffffffffff1673ffffffffffffffffffffffffffffffffffffffff16815260200190815260200160002060009054906101000a900460ff16151514610f49576040517f08c379a00000000000000000000000000000000000000000000000000000000081526004018080602001828103825260178152602001807f6163636f756e7420616c7265616479206372656174656400000000000000000081525060200191505060405180910390fd5b346000803373ffffffffffffffffffffffffffffffffffffffff1673ffffffffffffffffffffffffffffffffffffffff1681526020019081526020016000208190555060018060003373ffffffffffffffffffffffffffffffffffffffff1673ffffffffffffffffffffffffffffffffffffffff16815260200190815260200160002060006101000a81548160ff0219169083151502179055506040518060400160405280600f81526020017f6163636f756e742063726561746564000000000000000000000000000000000081525090505b90565b6060816000803373ffffffffffffffffffffffffffffffffffffffff1673ffffffffffffffffffffffffffffffffffffffff16815260200190815260200160002054116110b7576040517f08c379a00000000000000000000000000000000000000000000000000000000081526004018080602001828103825260248152602001806114a56024913960400191505060405180910390fd5b60011515600160003373ffffffffffffffffffffffffffffffffffffffff1673ffffffffffffffffffffffffffffffffffffffff16815260200190815260200160002060009054906101000a900460ff1615151461117d576040517f08c379a00000000000000000000000000000000000000000000000000000000081526004018080602001828103825260168152602001807f4163636f756e74206973206e6f7420637265617465640000000000000000000081525060200191505060405180910390fd5b60011515600160008573ffffffffffffffffffffffffffffffffffffffff1673ffffffffffffffffffffffffffffffffffffffff16815260200190815260200160002060009054906101000a900460ff16151514611226576040517f08c379a00000000000000000000000000000000000000000000000000000000081526004018080602001828103825260358152602001806114706035913960400191505060405180910390fd5b6000821161129c576040517f08c379a00000000000000000000000000000000000000000000000000000000081526004018080602001828103825260208152602001807f456e746572206e6f6e2d7a65726f2076616c756520666f722073656e64696e6781525060200191505060405180910390fd5b816000803373ffffffffffffffffffffffffffffffffffffffff1673ffffffffffffffffffffffffffffffffffffffff16815260200190815260200160002054036000803373ffffffffffffffffffffffffffffffffffffffff1673ffffffffffffffffffffffffffffffffffffffff16815260200190815260200160002081905550816000808573ffffffffffffffffffffffffffffffffffffffff1673ffffffffffffffffffffffffffffffffffffffff16815260200190815260200160002054016000808573ffffffffffffffffffffffffffffffffffffffff1673ffffffffffffffffffffffffffffffffffffffff168152602001908152602001600020819055506040518060400160405280601481526020017f7472616e736665722073756363657366756c6c79000000000000000000000000815250905092915050565b60006020528060005260406000206000915090505481565b6000600160003373ffffffffffffffffffffffffffffffffffffffff1673ffffffffffffffffffffffffffffffffffffffff16815260200190815260200160002060009054906101000a900460ff1690509056fe456e746572206e6f6e2d7a65726f2076616c756520666f72207769746864726177616c746f205472616e73666572206163636f756e7420646f6573206e6f742065786973747320696e2062616e6b206163636f756e747320696e73756666696365696e742062616c616e636520696e2042616e6b206163636f756e74a265627a7a723158203a58570d030c210e8fb356bc97ccf4ed91139bbcea986d0b808f5dbe39822ebd64736f6c63430005100032",
  "source": "// SPDX-License-Identifier: MIT\n\npragma solidity ^0.5.16;\n\ncontract BankAccount{\n  mapping(address=>uint) public userAccount;\n  mapping(address=>bool) public userExists;\n\n  function createAcc() public payable returns(string memory){\n      require(userExists[msg.sender]==false,'Account Already Created');\n      if(msg.value==0){\n          userAccount[msg.sender]=0;\n          userExists[msg.sender]=true;\n          return 'account created';\n      }\n      require(userExists[msg.sender]==false,'account already created');\n      userAccount[msg.sender] = msg.value;\n      userExists[msg.sender] = true;\n      return 'account created';\n  }\n  \n  function deposit() public payable returns(string memory){\n      require(userExists[msg.sender]==true, 'Account is not created');\n      require(msg.value>0, 'Value for deposit is Zero');\n      userAccount[msg.sender]=userAccount[msg.sender]+msg.value;\n      return 'Deposited Succesfully';\n  }\n  \n  function withdraw(uint amount) public payable returns(string memory){\n      require(userAccount[msg.sender]>amount, 'insufficeint balance in Bank account');\n      require(userExists[msg.sender]==true, 'Account is not created');\n      require(amount>0, 'Enter non-zero value for withdrawal');\n      userAccount[msg.sender]=userAccount[msg.sender]-amount;\n      msg.sender.transfer(amount);\n      return 'withdrawal Succesful';\n  }\n \n  function TransferAmount(address payable userAddress, uint amount) public returns(string memory){\n      require(userAccount[msg.sender]>amount, 'insufficeint balance in Bank account');\n      require(userExists[msg.sender]==true, 'Account is not created');\n      require(userExists[userAddress]==true, 'to Transfer account does not exists in bank accounts ');\n      require(amount>0, 'Enter non-zero value for sending');\n      userAccount[msg.sender]=userAccount[msg.sender]-amount;\n      userAccount[userAddress]=userAccount[userAddress]+amount;\n      return 'transfer succesfully';\n  }\n  \n  function sendAmount(address payable toAddress , uint256 amount) public payable returns(string memory){\n      require(amount>0, 'Enter non-zero value for withdrawal');\n      require(userExists[msg.sender]==true, 'Account is not created');\n      require(userAccount[msg.sender]>amount, 'insufficeint balance in Bank account');\n      userAccount[msg.sender]=userAccount[msg.sender]-amount;\n      toAddress.transfer(amount);\n      return 'transfer success';\n  }\n  \n  function userAccountBalance() public view returns(uint){\n      return userAccount[msg.sender];\n  }\n  \n  function accountExist() public view returns(bool){\n      return userExists[msg.sender];\n  }\n  \n}\n\n \n",
  "sourcePath": "/Users/rakeshmalik/Desktop/node_html/contracts/BankAccount.sol",
  "compiler": {
    "name": "solc",
    "version": "0.5.16+commit.9c3226ce.Emscripten.clang"
  },
  "schemaVersion": "3.4.13",
  "updatedAt": "2023-04-06T21:14:51.281Z",
  "networkType": "ethereum",
  "devdoc": {
    "methods": {}
  },
  "userdoc": {
    "methods": {}
  }
}